:040000000C9439051E
:040018000C945406EA
:040024000C94DC0854
:140054000000000000000000002F0000000007000700001447
:140068007F147F1400242A7F2A12006264081323003649557D
:14007C00225000000503000000001C224100000041221C00F8
:140090000014083E08140008083E0808000000A06000000880
:1400A40008080808000060600000002010080402003E514952
:1400B800453E0000427F4000004261514946002141454B310A
:1400CC00001814127F10002745454539003C4A4949300001DB
:1400E0007109050300364949493600064949291E00003636F8
:1400F400000000005636000000081422410000141414141489
:1401080000004122140800020151090600324959513E007C22
:14011C001211127C007F49494936003E41414122007F41416A
:14013000221C007F49494941007F09090901003E4149497ABC
:14014400007F0808087F0000417F4100002040413F01007F30
:1401580008142241007F40404040007F020C027F007F0408FC
:14016C00107F003E4141413E007F09090906003E4151215EC2
:14018000007F091929460046494949310001017F0101003F47
:140194004040403F001F2040201F003F4038403F00631408E5
:1401A800146300070870080700615149454300007F414100BA
:1401BC0000552A552A55000041417F0000040201020400408E
:1401D00040404040000001020400002054545478007F484475
:1401E400443800384444442000384444487F00385454541894
:1401F80000087E0901020018A4A4A47C007F080404780000DA
:14020C00447D4000004080847D00007F102844000000417F61
:140220004000007C04180478007C0804047800384444443836
:1402340000FC242424180018242418FC007C080404080048E6
:140248005454542000043F444020003C4040207C001C2040CB
:14025C00201C003C4030403C004428102844001CA0A0A07CCA
:14027000004464544C44141414141414030203020302010165
:14028400030105020502010105010302060207020701060226
:1402980005020302050106010401050103010101020107021C
:1402AC000102050103010602070107010602050103020502FF
:1402C0000602040205020302020101010704050204010401EF
:1402D4000302030205010602010206010101020205010401E3
:1402E8000402030203020102010201020501040104010302D4
:1402FC000301000400040004000206010601070107010101BC
:140310000101070107010601060103010301010101010601A6
:1403240006010501050104010401030104010501040204048B
:14033800000104010401050105010601060107010701050176
:14034C00050102010201040104010301030102010301040173
:1403600003020302030103040302060101010301020103025A
:14037400060101010301020103020601010104010301040248
:1403880006010101040103010402040103010401040105022F
:14039C00050106010501060103040302060101010301020117
:1403B00003020601010103010201030206010101040103010D
:1403C4000402060101010401030104020401030104010401F4
:1403D8000502050106010501060103040102030103010401D9
:1403EC000402020102010701070202010201030103020101CF
:140400000101060105010602010101010201020207010301BA
:140414000201030400000000000000000000000000000000CA
:140428000000000000000000000000000000000000000000C0
:14043C000000000000000000000000000000000000000000AC
:14045000000000000000000000000000000000000000000098
:1404640000000000000000000000000004020302040206026B
:14047800030403040202010202020402010401040702060236
:14048C00070204020304010402020302040206020504050418
:1404A00004020302040206020304010402020302040205020D
:1404B4000604060407020602050204020302060201020302ED
:1404C8000204020402040004040203020402060203040304E3
:1404DC000202010202020402010401040702060207020402D1
:1404F0000304010402020302040206020504050404020302B8
:1405040004020602030401040202030204020502060406049F
:14051800070206020502040203020602010203020204020490
:14052C0002040604050401040704060405040304030400026F
:1405400003020402020202040204020400040704010402026E
:14055400040403040404050207040602060406040604000440
:14056800000400040004000404020302040206020304030448
:14057C00020201020202040201040104070206020702040230
:14059000030401040202030204020602050405040402030217
:1405A4000402060203040104020203020402050206040604FF
:1405B8000702060205020402030206020102030202040204F0
:1405CC000204000404020302040206020304030402020102E3
:1405E0000202040201040104070206020702040203040104C7
:1405F4000202030204020602050405040402030204020602B1
:14060800030401040202030204020502060406040702060297
:14061C00050204020302060201020302020402040204020193
:14063000030104010501060406040604050401040704060466
:14064400050403040304000203020402020202040204020468
:14065800000407040104020204040304040405020704060245
:14066C0006040604060400040004000400040004050204023B
:14068000050207020404040400000000000000000000000046
:14069400000000000000000000000000000000000000000052
:1406A80000000000000000000000000000000000000000003E
:1406BC00000000000000000000000000FAED6B3F1AA1B70027
:1406D00000001860801860800000000000000C03000C030008
:1406E400000000D2BB00000000000000000000000001010172
:1406F800010101010101010100B6FE001010101010101010B2
:14070C00100000101010101010101010101000C8FD00080844
:14072000080808080808080000202021212121212121202026
:1407340000A1A200000000000000000000000000000000046A
:1407480018300000000000BCC64044C800808080FC8080808B
:14075C000000001F080400003F00000000CAB1F88888F800A4
:1407700020202020FC20001F08081F00000126203F0000C63F
:14078400F7809C94949CE09C94B4DC8000043C2A2A39003964
:140798002A2A3C0400D2F440485868484C4868584840000087
:1407AC003F151515151515153F0000C0D600F8888888E88496
:1407C000848480000010080620203F000002041800BAD02038
:1407D4002090B0A8A4A8B09020200020382B2A3A2A3A2A2B9D
:1407E800382000D3CE881010F49890205C50D010001009205B
:1407FC001F203F02223F020200CFB750901090704040FC20F2
:14081000A42800201906190020100B0C133800D5FD000888BC
:140824000808F808080808000020203F20203F2121212120F6
:1408380000D4DA101090701C1010D01010100002013F002040
:14084C0022223F22222000B2A520FC2058E848F844E45440E2
:1408600000223F013F2A2A3E2A2A3F0200B7C520E4282020D4
:140874008040BC20E02000201F01213F00201708172000A31B
:14088800BA0000C0C0000000000000000000000C0C0000000A
:14089C000000000000D0C7007C545454D45454547C000024C9
:1408B000232A2A2A3F2A2A2A222000D6AE0020202024282044
:1408C400A060200000002010081422212020202000CBF9002D
:1408D800F84848C400F84848C44400201F020227100F0000A7
:1408EC003F0000C3CE4828FC2848004828FC28480020242408
:140900002A1312120A0A060000D6D000E0202020FC20202026
:14091400E0000000070202023F020202070000B5C4F0181401
:1409280010F040209C1010F0003F1111113F00000023201F9C
:14093C0000BBE920E03CE000F8A8A878A4C00022150837004D
:140950003E2A2A2A3E0100C0F11014D8300000FC00000000BF
:140964000002013F0102001F2020203C000000BC036103F765
:1409780002CC027E023802FA01D601006974848C9DB0C6D13E
:14098C00000100000002C0F9A4B0999282F88090FF7FC6004E
:1409A000000000000000000000000000000000000108010831
:1409B400010801080108010828050000002020202042792083
:1409C8004368656E0020616E796B6579746F706C6179002033
:1409DC0020202020202D0020202020205E205E0020204169D4
:1409F00072637261667457617200C3CED6D0B5C4BBE9C0F142
:140A040000D0C7D6AECBF9D4DA00D5FDD4DAB2A5B7C5A3BAA1
:140A180000BCC6CAB1C6F700A1B700C8FDA1A2D3CECFB70089
:140A2C00B6FEA1A2D2F4C0D6BAD000D2BBA1A2BCC6CAB1C646
:140A4000F7002020202057755775577500202020207C20208B
:140A540020207C002020202D2D2D20202D2D2D0020596F75C7
:140A680020617265206469652100CFE5D4E0CDBFDEBFCE51FF
:140A7C00D0400AEA08830024E1E6F1E011E0E236F10711F019
:140A90000192FBCF0083E1E7F9E0A0E6B0E01AE000E00BBF17
:140AA400E237F10721F0C89531960D92F9CF0E945D11FFCFB3
:140AB80004C000000000000000001801015010402220B9F7BA
:140ACC003320A9F70895DD980AE010E0EFDFDD9ADC980AE094
:140AE00010E0EADF222701E269D0222700EC66D0222706E04A
:140AF40063D0222703E160D0222700E25DD0002705D02227C1
:140B08000CE058D0DC9A08950E940D12A02E22270CE050D0CE
:140B1C00222700E84DD04427552705C021E00A2D47D04F5FCE
:140B30005F4F483FE1E05E07B8F30C9412124A936A93622F7C
:140B4400402F2227062F006437D02227042F006833D0699164
:140B5800499108954A936A93602F6052442710C021E006E0D5
:140B6C00162F0103100184E590E0280E391EE42FFF27E20D8D
:140B8000F31D04911BD04395463070F36991499108950E940D
:140B94002F12C22EA02E4E815F812C2D0A2DCDDF05C0FA01A3
:140BA8000081D8DF4F5F5F4FFA0120802220B9F70C94361230
:140BBC00DC98222311F4DE9801C0DE9A0FB9779BFECFDC9A9B
:140BD00008950E943D12622FA02EC884262F0A2DAEDF442754
:140BE40016C04C3021F4262F2F5F0A2DA6DF21E00AE11C2DC2
:140BF800010310018FEC96E0280E391EE42FFF27E20DF31D1E
:140C0C000491D6DF4395483140F30C9446120E94CA110E94EF
:140C20000212622F21974F855889AA24CC242FC0EE241BC014
:140C34000AE11E2D010320018DEC96E0F201E80FF91F2490AC
:140C4800FA013080231461F48EEC96E0F201E80FF91F2490BB
:140C5C00FA013180231411F4AE2C06C0E394ECECF6E0249023
:140C7000E21400F3A882262F0CE01C2D01030B85000DA7DFAC
:140C8400C3944F5F5F4F4F5F5F4FFA012080222009F0CCCFDC
:140C980021960E94F7112496089588E08EBD08951A922A92D8
:140CAC003A924A925A920A931A932A933A938A939A93EA9305
:140CC000FA931FB61A9280918000813009F0DAC080917B00B1
:140CD400843F51F4222420927B0081E090E090937D0080930D
:140CE8007C00A4C180917C0090917D0001971C0130927D00F8
:140CFC0020927C008030890709F0ABC08CE792E0E0917B0041
:140D1000FF27E80FF91F2490222009F044C0222420927E0031
:140D240088E08EBDDB9A00916200109163000E94A41218012B
:140D3800290108EC16E00E9458123A932A931A930A93810131
:140D4C0092010E94D1120E9472121BBD0ABD2090730033243C
:140D6000220C331C30927D0020927C0080917B008F5F809308
:140D74007B008CE792E0E0917B00FF27E80FF91F24913327DB
:140D880081010E94E71110937D0000937C0080917B008F5F92
:140D9C0080937B008AE08EBD47C181E080937E0088E08EBD53
:140DB0008CE792E0E0917B00FF27E80FF91FE491FF27EE0F91
:140DC400FF1F80E690E0E80FF91F008111810E94A412180194
:140DD800290108EC16E00E9458123A932A931A930A93810191
:140DEC0092010E94D1120E9472121BBD0ABD8CE792E0E091C0
:140E00007B00FF27E80FF91FE491FF2782E790E0E80FF91FAB
:140E140020803324220C331C30927D0020927C0080917B005D
:140E28008F5F80937B008CE792E0E0917B00FF27E80FF91F34
:140E3C002491332781010E94E71110937D0000937C00809137
:140E50007B008F5F80937B008AE08EBDEBC020907E002220C7
:140E640009F4E6C020907F00222029F0DB98222420927F0063
:140E7800DDC0DB9A81E080937F00D8C080917B00883551F43B
:140E8C00222420927B0081E090E090937D0080937C00CAC055
:140EA00080917C0090917D0001971C0130927D0020927C00F1
:140EB4008030890709F0ABC08CE792E0E0917B00FF27E80F98
:140EC800F91F2490222009F044C0222420927E0088E08EBDE2
:140EDC00DB9A00916200109163000E94A4121801290108EC07
:140EF00016E00E9458123A932A931A930A93810192010E9461
:140F0400D1120E9472121BBD0ABD209073003324220C331C3A
:140F180030927D0020927C0080917B008F5F80937B0080E7E9
:140F2C0094E0E0917B00FF27E80FF91F2491332781010E94E9
:140F4000E71110937D0000937C0080917B008F5F80937B006E
:140F54008AE08EBD6DC081E080937E0088E08EBD80E794E027
:140F6800E0917B00FF27E80FF91FE491FF27EE0FFF1F80E638
:140F7C0090E0E80FF91F008111810E94A4121801290108EC40
:140F900016E00E9458123A932A931A930A93810192010E94C0
:140FA400D1120E9472121BBD0ABD80E794E0E0917B00FF27A4
:140FB800E80FF91FE491FF2782E790E0E80FF91F208033249C
:140FCC00220C331C30927D0020927C0080917B008F5F80939A
:140FE0007B0080E794E0E0917B00FF27E80FF91F2491332777
:140FF40081010E94E71110937D0000937C0080917B008F5F24
:1410080080937B008AE08EBD11C020907E00222069F0209047
:14101C007F00222029F0DB98222420927F0004C0DB9A81E062
:1410300080937F0019901FBEF991E9919991899139912991C8
:14104400199109915990499039902990199018954A9308C015
:14105800442702C0000043954B3BE0F301501040003001074D
:14106C00A9F7499108954A935A93002789B3807820B32870C9
:14108000282B4091AF0055274030450771F04130E0E05E075A
:1410940089F04230E0E05E0711F14330E0E05E0709F436C0AB
:1410A80049C0283809F446C081E08093AF0042C0283879F0DA
:1410BC00203821F483E08093AF0001E02830C1F582E080932A
:1410D000AF0022242092610131C022242092AF002DC028381E
:1410E40039F422242092AF002092610102E024C080916101D7
:1410F8008F5F282E209261018436E0F083E08093AF00222497
:14110C002092610103E014C0283821F422242092AF000EC01A
:14112000809161018F5F282E20926101823330F0283021F4AE
:1411340022242092610103E0599149910895AA924A93A02E22
:1411480044270EC017E0141B01E00E946C122A2C202211F496
:14115C00D89801C0D89AC198C19A4395483080F3C098C09AB3
:141170004991A99008958AB380678ABB87B3806B87BBD09A81
:14118400D798DF9A87B3836087BBC19A81B3806F81BB82B321
:141198008F7082BB8B98939AD39ADB9A0895222423BE8AE1A6
:1411AC0082BF86EE8CBF83E083BF08950A921A922A923A921D
:1411C0004A925A926A927A928A929A920A931A932A933A932F
:1411D4008A939A93AA93BA93EA93FA930FB60A924A935A93FE
:1411E8008AE182BF82B3806F82BB80919500813089F481E9A8
:1411FC0090E0E0919500FF27E80FF91FE081FF2781E890E0D4
:14121000E80FF91F00810F7794DF0FC081E990E0E091950092
:14122400FF27E80FF91FE081FF2781E890E0E80FF91F008191
:1412380084DF80919D00813079F420909900222059F02090EF
:14124C009500822D823011F0833021F482B3806F82BB1FC08F
:1412600080919D00823079F420909900222059F02090950094
:14127400222019F0822D813021F482B3806F82BB0CC02090C9
:14128800950017E0121901E00E946C12202E209432B2322062
:14129C0032BA409195004F5F40939500443018F02224209262
:1412B0009500409196004F5F40939600453030F081E080930E
:1412C4009700222420929600409198004F5F409398004639F0
:1412D80040F020909900209420929900222420929800409129
:1412EC009A0050919B004F5F5F4F50939B0040939A00443F0E
:14130000E1E05E0748F081E080939C002224332430929B0071
:1413140020929A005991499109900FBEF991E991B991A991C7
:14132800999189913991299119910991999089907990699061
:14133C00599049903990299019900990189522242AB82BB85F
:1413500086E880BD8FE289B920BC88E18AB908958DB18065E3
:141364008DB90895F89405DFF9DFEDDF1ADF97DC222425BEE9
:141378002BBE81E089BF89B7806189BF789408955D9BFECFF8
:14138C000CB908952091AC0033270091AB0011270E949F057A
:1413A00021E030E0002711270E94DE0521E030E000271127D4
:1413B4000E94DE0521E030E0002711270E94DE0521E030E09A
:1413C800002711270E94DE0580E02090AB00821520F4822D18
:1413DC0081508093AB002091AC0033270091AB0011270E94A1
:1413F0009F0521E030E008EF10E00E94DE0521E030E000E2D5
:1414040010E00E94DE0521E030E000E210E00E94DE0521E0F6
:1414180030E008EF10E00C94DE052091AC0033270091AB0053
:14142C0011270E949F0521E030E0002711270E94DE0521E038
:1414400030E0002711270E94DE0521E030E0002711270E9492
:14145400DE0521E030E0002711270E94DE058091AB0080353B
:1414680018F48F5F8093AB002091AC0033270091AB0011278D
:14147C000E949F0521E030E008EF10E00E94DE0521E030E088
:1414900000E210E00E94DE0521E030E000E210E00E94DE0589
:1414A40021E030E008EF10E00C94DE054A935A933090AB0084
:1414B8005090A900351481F0852D8F5F381661F0852D8E5FFF
:1414CC00381641F0852D8D5F381621F0852D8C5F381611F4A0
:1414E00001E028C00091AB00402F55274D5F5F4F2091A90054
:1414F400222E332442155305C1F0822D992701964817590718
:1415080091F0822D992702964817590761F0822D992703962F
:14151C004817590731F0822D8C5F902F9C5F981711F401E0F2
:1415300001C00027599149910895229700270E94880583E5E7
:1415440091E09983888322E000270E94C90587E491E099836A
:14155800888323E000270E94C9058CE391E09983888324E0CF
:14156C0000270E94C90581E391E09983888325E000270E940A
:14158000C90508E91AE366DD00270E94880502D022960895DB
:14159400229700270E94880586E291E09983888322270CE0FF
:1415A8000E940D068BE191E09983888322E00CE00E940D06D3
:1415BC0082E191E09983888324E00CE00E940D068FE091E09B
:1415D00099838883222700270E940D06229608952297002786
:1415E4000E94880588E091E09983888322E008E10E940D0624
:1415F800229608950E94211241E0C9C020909C00222009F480
:14160C0045C080919E008F5F80939E00833028F022242092B4
:141620009D0020929E00222420929C0020909D00222091F520
:14163400809190008F5F282E209290008C3370F02224209264
:14164800900080918F008F5F282E20928F008C3318F02224CC
:14165C0020928F001AE000918F000E94D111009391001AE07D
:1416700000918F000E94CF11009392001AE0009190000E94E2
:14168400D111009393001AE0009190000E94CF110093940086
:1416980020909700222009F47AC0222420929700E4DCA02E61
:1416AC006A2D77276130E0E07E0751F06230E0E07E07E9F02E
:1416C0006330E0E07E0709F454C065C0222420929E002090C2
:1416D4009D00222021F481E080939D005AC080919D00813084
:1416E80021F482E080939D0052C081E080939D004EC0222450
:1416FC0020929E0080919D00813051F4609190006F5F6093A4
:1417100090006C3388F0209290000EC080919D00823051F469
:1417240060918F006F5F60938F006C3318F0222420928F00B3
:141738001AE000918F000E94D111009391001AE000918F00C1
:14174C000E94CF11009392001AE0009190000E94D1110093B0
:1417600093001AE0009190000E94CF110093940012C04427E1
:14177400222420928F0020929000209291002092920020925F
:1417880093002092940000270E948805FFDE442309F034CFDE
:14179C000C942812229700270E9488058DEF90E0998388833D
:1417B00022270CE00E940D0684EF90E09983888322E008E146
:1417C4000E940D06229608950E941712229741E072C0209080
:1417D8009700222009F46DC022242092970045DC602F77271D
:1417EC006130E0E07E0751F06230E0E07E0781F06330E0E037
:141800007E0709F446C059C08EB5883019F48AE08EBD53C063
:1418140088E08EBDDB9A4FC0809180008130B9F482E0809325
:14182800800000270E9488058DEF90E09983888322270CE08E
:14183C000E940D0684EF90E09983888322E008E10E940D0639
:1418500016C081E08093800000270E9488058DEF90E099835C
:14186400888322270CE00E940D0689EE90E09983888322E06B
:141878000CE00E940D06222420927B0081E090E090937D00D7
:14188C0080937C0014C0442788E08EBDDB9A82E0809380005D
:1418A000222420927B0081E090E090937D0080937C0000279A
:1418B4000E9488056DDE442309F08BCF22960C941C122090B6
:1418C800AE00222021F02090AD00222011F4002701C001E09E
:1418DC0008952090AD00222021F02090AE002220A1F42091C5
:1418F000AE0033270091AD0011270E949F0521E030E00027E8
:1419040011270E94DE0522242092AD002092AE0025C0209177
:14191800AE0033270091AD0011270E949F0521E030E00027BF
:14192C0011270E94DE0580E02090AE00821520F4822D815001
:141940008093AE002091AE0033270091AD0011270E949F055D
:1419540021E030E008E010E00E94DE0508950E940D12209003
:14196800AE00222009F0A7C03090AD0050909F00351481F075
:14197C00852D8F5F381661F0852D8E5F381641F0852D8D5F5C
:14199000381621F0852D8C5F381671F520919F003327009158
:1419A400AD0011270E949F0521E030E0002711270E94DE050F
:1419B80021E030E0002711270E94DE0521E030E000271127B6
:1419CC000E94DE0521E030E0002711270E94DE0521E030E07C
:1419E000002711270E94DE0522242092AD002092AE00209258
:1419F4009F0011C34091AD0055274F5F5F4FA0909F002A2CF1
:141A0800332442155305C9F0822D992701964817590799F0BD
:141A1C00822D992702964817590769F0822D99270396481730
:141A3000590739F0822D992704964817590709F0ECC22091F9
:141A4400AE0033270091AD0011270E949F0521E030E0002792
:141A580011270E94DE0520919F0033270091AD0011270F5F2F
:141A6C001F4F0E949F0521E030E0002711270E94DE0521E0BC
:141A800030E0002711270E94DE0521E030E0002711270E944C
:141A9400DE0521E030E0002711270E94DE0521E030E000272E
:141AA80011270E94DE0522242092AD002092AE0020929F0017
:141ABC00AEC28091AE00813009F0A7C0A090AD004091A10087
:141AD000A41681F0842F8F5FA81661F0842F8E5FA81641F098
:141AE400842F8D5FA81621F0842F8C5FA81671F52091A1006C
:141AF80033270091AD0011270E949F0521E030E00027112754
:141B0C000E94DE0521E030E0002711270E94DE0521E030E03A
:141B2000002711270E94DE0521E030E0002711270E94DE05D8
:141B340021E030E0002711270E94DE0522242092AD00209251
:141B4800AE002092A10065C24091AD0055274F5F5F4FA090DB
:141B5C00A1002A2C332442155305C9F0822D9927019648175A
:141B7000590799F0822D992702964817590769F0822D9927EA
:141B840003964817590739F0822D992704964817590709F00B
:141B980040C22091AE0033270091AD0011270E949F0521E0C1
:141BAC0030E0002711270E94DE052091A10033270091AD0047
:141BC00011270F5F1F4F0E949F0521E030E0002711270E94A5
:141BD400DE0521E030E0002711270E94DE0521E030E00027ED
:141BE80011270E94DE0521E030E0002711270E94DE0521E036
:141BFC0030E0002711270E94DE0522242092AD002092AE00DC
:141C10002092A10002C28091AE00823009F0A7C0A090AD00FB
:141C24004091A300A41681F0842F8F5FA81661F0842F8E5FBD
:141C3800A81641F0842F8D5FA81621F0842F8C5FA81671F579
:141C4C002091A30033270091AD0011270E949F0521E030E009
:141C6000002711270E94DE0521E030E0002711270E94DE0597
:141C740021E030E0002711270E94DE0521E030E000271127F7
:141C88000E94DE0521E030E0002711270E94DE0522242092D6
:141C9C00AD002092AE002092A300B9C14091AD0055274F5FB0
:141CB0005F4FA090A3002A2C332442155305C9F0822D99271B
:141CC40001964817590799F0822D992702964817590769F00E
:141CD800822D992703964817590739F0822D992704964817A0
:141CEC00590709F094C12091AE0033270091AD0011270E9465
:141D00009F0521E030E0002711270E94DE052091A300332788
:141D14000091AD0011270F5F1F4F0E949F0521E030E00027EB
:141D280011270E94DE0521E030E0002711270E94DE0521E0F4
:141D3C0030E0002711270E94DE0521E030E0002711270E948D
:141D5000DE0521E030E0002711270E94DE0522242092AD0002
:141D64002092AE002092A30056C18091AE00833009F0A7C0CD
:141D7800A090AD004091A500A41681F0842F8F5FA81661F029
:141D8C00842F8E5FA81641F0842F8D5FA81621F0842F8C5FA8
:141DA000A81671F52091A50033270091AD0011270E949F059F
:141DB40021E030E0002711270E94DE0521E030E000271127B6
:141DC8000E94DE0521E030E0002711270E94DE0521E030E07C
:141DDC00002711270E94DE0521E030E0002711270E94DE051A
:141DF00022242092AD002092AE002092A5000DC14091AD0037
:141E040055274F5F5F4FA090A5002A2C332442155305C9F008
:141E1800822D992701964817590799F0822D99270296481702
:141E2C00590769F0822D992703964817590739F0822D99278A
:141E400004964817590709F0E8C02091AE0033270091AD009D
:141E540011270E949F0521E030E0002711270E94DE05209156
:141E6800A50033270091AD0011270F5F1F4F0E949F0521E0CE
:141E7C0030E0002711270E94DE0521E030E0002711270E944C
:141E9000DE0521E030E0002711270E94DE0521E030E000272E
:141EA40011270E94DE0521E030E0002711270E94DE05222432
:141EB8002092AD002092AE002092A500AAC08091AE00843023
:141ECC0009F0A5C0A090AD004091A700A41681F0842F8F5F83
:141EE000A81661F0842F8E5FA81641F0842F8D5FA81621F0E2
:141EF400842F8C5FA81671F52091A70033270091AD001127F0
:141F08000E949F0521E030E0002711270E94DE0521E030E079
:141F1C00002711270E94DE0521E030E0002711270E94DE05D8
:141F300021E030E0002711270E94DE0521E030E00027112738
:141F44000E94DE0522242092AD002092AE002092A70061C085
:141F58004091AD0055274F5F5F4FA090A7002A2C3324421544
:141F6C005305C1F0822D992701964817590791F0822D9927A3
:141F800002964817590761F0822D992703964817590731F0BD
:141F9400822D9927049648175907E9F52091AE003327009149
:141FA800AD0011270E949F0521E030E0002711270E94DE0505
:141FBC002091A70033270091AD0011270F5F1F4F0E949F05C7
:141FD00021E030E0002711270E94DE0521E030E00027112798
:141FE4000E94DE0521E030E0002711270E94DE0521E030E05E
:141FF800002711270E94DE0521E030E0002711270E94DE05FC
:14200C0022242092AD002092AE002092A7000C9412122297E5
:1420200000270E9488058BED90E099838883222700270E9435
:14203400C90582ED90E09983888322E000270E94C9058AECB5
:1420480090E09983888323E000270E94C9058CEB90E0998350
:14205C00888324E000270E94C90580EB90E09983888325E0C3
:1420700000270E94C905229608950E940212AA24A39444274A
:142084006627CC2413C120909C00222009F4CFC022242092E5
:142098009C000ADA002311F0CC24C394CC2009F0C2C044237B
:1420AC0009F4C1C000270E9488052090A7002092A9002090EA
:1420C000A5002092A7002090A3002092A5002090A100209261
:1420D400A30020909F002092A10060939F006A5E603528F0AC
:1420E80010E5062F0E94CF11602F2227332700919F0011279E
:1420FC000E949F05EE2408C021E030E00091A00011270E9494
:14211000DE05E3948E2D8530A8F321E030E00091A1001127DB
:142124000E949F05EE2408C021E030E00091A20011270E9469
:14213800DE05E3948E2D8530A8F322E030E00091A3001127B0
:14214C000E949F05EE2408C021E030E00091A40011270E943F
:14216000DE05E3948E2D8530A8F323E030E00091A500112785
:142174000E949F05EE2408C021E030E00091A60011270E9415
:14218800DE05E3948E2D8530A8F324E030E00091A70011275A
:14219C000E949F05EE2408C021E030E00091A80011270E94EB
:1421B000DE05E3948E2D8530A8F325E030E00091A90011272F
:1421C4000E949F05EE2408C021E030E00091AA0011270E94C1
:1421D800DE05E3948E2D8530A8F32091AC0033270091AB009B
:1421EC0011270E949F0521E030E008EF10E00E94DE0521E0E3
:1422000030E000E210E00E94DE0521E030E000E210E00E94DE
:14221400DE0521E030E008EF10E00E94DE0551DB002329F0EE
:142228005ADB9BDB02C085D9AA2420909700222009F43AC089
:14223C002224209297000E943908E02EFF24C7018130E0E0B2
:142250009E0749F08230E0E09E0771F08330E0E09E0799F083
:1422640025C0442329F400270E94880541E01EC08DD81CC067
:14227800442329F400270E94880541E015C0CDD813C04423A3
:14228C0029F400270E94880541E00CC016DBE02E002341F487
:1422A0008091AB008F5F8093AD0085E08093AE00AA2009F0D7
:1422B400EACE0C94F7112297442754D80E94690505E560D834
:1422C80000270E94880562D95EC020909700222009F459C0B4
:1422DC002224209297000E943908602F77276130E0E07E0779
:1422F00029F06230E0E07E07C1F149C0242F3327220F331FFF
:14230400002711270E949F05662707C021E030E0002711275C
:142318000E94DE0563956C30B8F3242F3327220F331F2F5F2F
:14232C003F4F002711270E949F05662707C021E030E00027DE
:1423400011270E94DE0563956C30B8F3423011F4442701C0EA
:1423540043958FE091E099838883242F220F00270E940D0636
:1423680012C000270E948805442321F4442734D941D909C062
:14237C00413021F444270EDA23DA03C0442749DE76DEA1CF5E
:14239000229608953A932A931A930A930895689401C0E8943A
:1423A4002A93FA92EA92FF24EE2420E1000FFF1CEE1CE116FF
:1423B80010F0E11A03952A95B9F70EF40E2DE990F990299116
:1423CC0008950A921A928A939A93029FC001129F900D039F7C
:1423E000900D8C0199918991199009900895A990B990C990C1
:1423F400D990E990F990499159916991799108957A936A93FB
:142408005A934A93FA92EA92DA92CA92BA92AA9208955A9314
:14241C004A93BA92AA920895A990B9904991599108957A93BA
:142430006A935A934A930895499159916991799108957A93C2
:142444006A935A934A93BA92AA920895A990B9904991599152
:142458006991799108955A934A93DA92CA92BA92AA92089518
:14246C00A990B990C990D9904991599108957A936A935A93C0
:142480004A93DA92CA92BA92AA920895A990B990C990D9903A
:142494004991599169917991089500951095209530950F5FAD
:1424A8001F4F2F4F3F4F0895EA93FA930A92E02FF12FC895D7
:1424BC00002D3196C895102D3196C895202D3196C895302D8C
:1424D0000990F991E9910895112319F0000F1A95FBCF08955C
:1424E4004A925A926A928A930E94721311F15520E2F08FE123
:1424F8004816C0F487E14816D1F058F4419489EE481A05C078
:14250C0035952795179507954A94D1F70EC087E1481A000FA0
:14252000111F221F331F4A94D1F705C03FE7232F132F032F8D
:1425340004C0662011F00E944F1289916990599049900895D3
:14254800689401C0E8942227332746F017FD209517FD3095CB
:14255C0003C0689401C0E8944A925A926A928A9387E1482EB0
:142570005524662436F0332322F40E944F1280E8682E0E941F
:142584008B1389916990599049900895FA93EA93EA81FB8142
:1425980027D0E991F99122960895FA93EA93EC2FFD2F3296C6
:1425AC001DD0E991F99124960895FA93EA93EA81FB8114D0FE
:1425C000E991F991398328831A930A930895FA93EA93EC2F90
:1425D400FD2F329607D0E991F9913B832A83198308830895F5
:1425E8000A921A922A923A920E94D0133A932A931A930A93B6
:1425FC0000811181228133810E94721309F457C0E62CD52C13
:14261000C42CB32EA22E912E802E09911991299139910E943E
:142624007213A1F16E244C185D0880E8481653060CF033C022
:1426380081E848168FEF58060CF436C080E23324232E122EAB
:14264C00012E302F22271127002726941794079437952795BC
:14266000000F111F221F331F001C111C221C331C28F0081886
:1426740019082A083B0804C0080C191C2A1C3B1C0AF00160B7
:142688008A9551F70E948B130E94DF1339902990199009903F
:14269C0008950FEF102F2FE73FE7662099F30E944F12F0CF40
:1426B0000027102F202F302FEBCF0991199129913991EDCFC4
:1426C4000FD029F0662011F00E944F1298940895002329F477
:1426D800112319F4222309F433230895F7DF99F08A93632E6B
:1426EC0080E86822220F331F432E8FE7481A55248827580A92
:14270000269530E8232B3327899198940895442455246624FC
:142714000895DEDF09F40895AA93BA93D2019A938A938EE7A1
:1427280090E0332349F03695279517950795A817B907CCF490
:14273C001196F5CF8095909501962223BAF0000F111F221FDE
:14275000A817B90714F01197F6CF0027112722273327899169
:1427640099912D01B991A991089533270FEF102F2FE7322FDA
:14277800899199912D0102C0AA93BA93A7DF49F0D201A15804
:14278C00BF4F2D01342D220F369527953629B991A991089564
:1427A0004A925A926A927A928A929A92AA92BA92CA92DA92BD
:1427B400EA92FA928A939A93089599918991F990E990D99073
:1427C800C990B990A99099908990799069905990499008957F
:00000001FF
